:020000020000FC
:1020000053746566616E6F2773206661766F7269BF
:1020100074653A0D0A312E204D6F7669650D0A32CE
:102020002E20426F6F6B0D0A332E20466F6F640DAA
:102030000A342E2049636520437265616D2F596F04
:102040006775727420666C61766F720D0A352E208A
:1020500050697A7A6120546F7070696E670D0A3624
:102060002E205265646973706C6179204D656E75C0
:102070000D0A4553433A20657869740D0A0053747C
:102080006566616E6F2773206661766F726974652D
:10209000206D6F76696520697320466967687420D2
:1020A000436C75620D0A000053746566616E6F279C
:1020B00073206661766F7269746520626F6F6B2042
:1020C0006973204368726F6E69636C6573206F6615
:1020D000206120446561746820466F72746F6C647F
:1020E0000D0A000053746566616E6F277320666188
:1020F000766F7269746520666F6F642069732072F1
:102100006963650D0A0053746566616E6F277320FD
:102110006661766F726974652069636520637265B4
:10212000616D2F796F6775727420666C61766F725E
:102130002069732063686F636F6C6174650D0A00BA
:1021400053746566616E6F2773206661766F72697E
:1021500074652070697A7A6120746F7070696E6737
:102160002069732070696E656170706C650D0A007E
:06217000446F6E652100C2
:02000000FFC13E
:100400000FEF0DBF0FE30EBF47D053D0E0E0F0E297
:1004100029D030D00B3169F0013381F0023391F0F3
:100420000333A1F00433B1F00533C1F0063371F3A7
:10043000F0CFE0E7F1E20E943202FFCFEEE7F0E218
:1004400011D0E4CFE8EAF0E20DD0E0CFE4EEF0E244
:1004500009D0DCCFE6E0F1E205D0D8CFE0E4F1E26C
:1004600001D0D4CF0F930591003011F00CD0FBCF09
:100470000F9108951F930091A10907FFFCCF0091F0
:10048000A0091F9108951F931091A10915FFFCCF9A
:100490000093A0091F91089508E10093A40903E0C7
:1004A0000093A50907ED0093A60903E90093A709A6
:1004B000089508E0009361060093650604E0009348
:0E04C00062060AE00093C1070093C607089584
:00000001FF
