:020000020000FC
:02000000FFC13E
:100400000FEF0DBF0FE30EBF07E10093E00603E11E
:100410000093E4060FEF009300070093200701E02C
:1004200000934004F4E0E2E500E4019300E000837F
:1004300001E100935004B0E4A0E008E10093B406A9
:100440000093B5060093B6060093B70602D02C932E
:10045000FDCF0F931F932FEF0FE00093A0060EE048
:100460000093A406000000001091A80614FF21E0EC
:1004700015FF24E016FF27E017FF2EE00DE00093A4
:10048000A406000000001091A80614FF22E015FF4A
:1004900025E016FF28E017FF20E00BE00093A406FC
:1004A000000000001091A80614FF23E015FF26E0CD
:1004B00016FF29E017FF2FE007E00093A4060000D5
:1004C00000001091A80614FF2AE015FF2BE016FF8C
:0C04D0002CE017FF2DE01F910F91089504
:00000001FF
