:020000020000FC
:02000000FFC13E
:0E20000053746566616E6F205265796E6100E3
:100400000FEF0DBF0FE30EBF07E10093E00603E11E
:100410000093E4060FEF009300070093200701E02C
:1004200000934004F4E0E6E500E001930BE1008373
:100430000DE100935404B0E1A0E00E943F0208E304
:100440000C930E943F020FE00C930E943F0201E0D8
:100450000C930E943F02F0E2E0E00E943602FFCFE0
:100460000E943F02B0E1A1E00C9308950F93059123
:10047000003019F00E943002FACF0F9108950F93C7
:100480001F9300E010E000000000000000000000EA
:10049000000000000000000000000000000000005C
:1004A000000000000395003019F0113061F711F0E1
:0A04B0001395FBCF1F910F910895E3
:00000001FF
