S00C00005175697A2E737265636F
S113000053C100006DC100006BC1000069C1000054
S113001067C1000065C1000063C1000061C1000048
S11300205FC100005DC100005BC1000059C1000058
S113003057C1000055C1000053C1000051C1000068
S11300404FC100004DC100004BC1000049C1000078
S113005047C1000045C1000043C1000041C1000088
S11300603FC100003DC100003BC1000039C1000098
S113007037C1000035C1000033C1000031C10000A8
S11300802FC100002DC100002BC1000029C10000B8
S113009027C1000025C1000023C1000021C10000C8
S11300A01FC100001DC100001BC1000019C10000D8
S11300B017C1000015C1000013C1000011C10000E8
S11300C00FC100000DC100000BC1000009C10000F8
S11300D007C10000FAC1000003C1000001C1000013
S11300E0FFC00000FDC00000FBC00000F9C000001C
S11300F0F7C00000F5C00000F3C00000F1C000002C
S1130100EFC00000EDC00000EBC00000E9C000003B
S1130110E7C00000E5C00000E3C00000E1C000004B
S1130120DFC00000DDC00000DBC00000D9C000005B
S1130130D7C00000D5C00000D3C00000D1C000006B
S1130140CFC00000CDC00000CBC00000C9C000007B
S1130150C7C00000C5C00000C3C00000C1C000008B
S1130160BFC00000BDC00000BBC00000B9C000009B
S1130170B7C00000B5C00000B3C00000B1C00000AB
S1130180AFC00000ADC00000ABC00000A9C00000BB
S1130190A7C00000A5C00000A3C00000A1C00000CB
S11301A09FC000009DC000009BC0000099C00000DB
S11301B097C0000095C0000093C0000091C00000EB
S11301C08FC000008DC000008BC0000089C00000FB
S11301D087C0000085C0000083C0000081C000000B
S11301E07FC000007DC000007BC0000079C000001B
S11301F077C0000075C0000073C000004404FA0218
S11302001A033A0360038603AC03D203F8031E0403
S113021001050105010501050105010501056A0442
S11302209004B604DC045F050E05170520052905B6
S113023032053B0544054D0556059505950595057F
S11302409505950595059505680571057A05830558
S113025095059505950595059505950595059505CA
S113026095059505950595059505950595059505BA
S113027095059505950595059505950595059505AA
S1130280950595059505950595059505950595059A
S1130290950595059505950595059505950595058A
S11302A09505950595058C0511241FBECFEFCDBF8F
S11302B0DFE3DEBF00E00CBF18BE19BE1ABE1BBED2
S11302C011E2A0E0B0E2E2EFFBE000E00BBF02C00D
S11302D007900D92A833B107D9F71BBE3BD487C44E
S11302E08FCE87E38093E00683E38093E4068FEF69
S11302F080932007E0E4F4E081E08083138A80E4C3
S1130300828B81E1808B80E09BE1868B978B81E2FD
S1130310848B089588E18093B4068093B506809316
S1130320B6068093B7068FE08093A10680EF809392
S1130330A2060895CF93DF931F92CDB7DEB719823B
S113034080E090E1ABE1B0E00BB6ABBFFC012081F3
S11303500BBE298329812223BCF30F90DF91CF9117
S11303600895E8DF28E380E090E1ABE1B0E00BB66C
S1130370ABBFFC0120830BBEDDDF2FE080E090E10A
S1130380ABE1B0E00BB6ABBFFC0120830BBED2DF08
S113039021E080E090E1ABE1B0E00BB6ABBFFC0143
S11303A020830BBEC7CF08957F928F929F92AF9206
S11303B0BF92CF92DF92EF92FF920F931F93CF934E
S11303C0DF93EC018881811119C016C0B3DF0031BD
S11303D0110531F40BB6ABBEF40170820BBEAADF7B
S11303E0A9DF89910BB6EBBEF60180830BBE0F5FCC
S11303F01F4F88818111EACF9DDF19C09BDF00E088
S113040010E00F2ECC24C394F0E1DF2EFBE1EF2E9D
S1130410F12CF02D0F2E812CF0E19F2EFBE1AF2E5D
S1130420B12CF02D0F2EF0EC7F2EF02DD9CFDF91D3
S1130430CF911F910F91FF90EF90DF90CF90BF90DD
S1130440AF909F908F907F900895E0E4FAE085E06C
S1130450808380E1818382E0868317828093A20077
S11304607894089581E0E0E8F6E081831092200A10
S11304701092210A1092000A81E18093010A0895E2
S1130480CF93DF93E0E4FAE010A211A286A397A32E
S113049026A137A180A191A18217930798F480E047
S11304A090E4A0E0B0E061E0C0E4DAE00BB6ABBFFA
S11304B0FC0160830BBE4EA15FA128A139A12417C2
S11304C03507A0F3DF91CF9108951F920F920FB6D5
S11304D00F92112408B60F9218BE09B60F9219BED6
S11304E00BB60F921BBE2F938F939F93AF93BF9323
S11304F0EF93FF9320E080E090E4A0E0B0E00BB63F
S1130500ABBFFC0120830BBEFF91EF91BF91AF9174
S11305109F918F912F910F900BBE0F9009BE0F905A
S113052008BE0F900FBE0F901F9018958EE0809319
S1130530A40600008091A8068E3E91F18E3D91F1B3
S11305408E3B91F18E3791F18DE08093A4060000EB
S11305508091A8068D3E61F18D3D61F18D3B61F185
S11305608D3761F18BE08093A40600008091A8068A
S11305708B3E31F18B3D31F18B3B31F18B3731F1D6
S113058087E08093A40600008091A806873E01F1CD
S1130590873D01F1873B01F1873701F584E4089534
S11305A081E3089584E3089587E308958AE2089532
S11305B082E3089585E3089588E3089580E3089528
S11305C083E3089586E3089589E3089583E2089513
S11305D081E4089582E4089583E4089586E2089509
S11305E090E0FC01F097E531F10508F00AC2E25011
S11305F0FF4FF7C221E080E090E1ABE1B0E00BB641
S1130600ABBFFC0120830BBE95DE80E090E2CCDE24
S113061020EC80E090E1ABE1B0E00BB6ABBFFC01B5
S113062020830BBE87DE83E090E2BEDE88EC9FEA87
S113063027CF089521E080E090E1ABE1B0E00BB674
S1130640ABBFFC0120830BBE75DE8EE090E2ACDE16
S113065020EC80E090E1ABE1B0E00BB6ABBFFC0175
S113066020830BBE67DE86E190E29EDE88E99AE392
S113067007CF089588E593E0E0E0FAE080A791A72A
S113068021E080E090E1ABE1B0E00BB6ABBFFC0150
S113069020830BBE4FDE81E290E286DE20EC80E018
S11306A090E1ABE1B0E00BB6ABBFFC0120830BBE25
S11306B041DE84E290E278DE88E99AE3E1CE0895AF
S11306C088E293E0E0E0FAE080A791A721E080E0EF
S11306D090E1ABE1B0E00BB6ABBFFC0120830BBEF5
S11306E029DE8FE290E260DE20EC80E090E1ABE175
S11306F0B0E00BB6ABBFFC0120830BBE1BDE87E36F
S113070090E252DE88E99AE3BBCE08958AEF92E044
S1130710E0E0FAE080A791A721E080E090E1ABE17E
S1130720B0E00BB6ABBFFC0120830BBE03DE82E45A
S113073090E23ADE20EC80E090E1ABE1B0E00BB671
S1130740ABBFFC0120830BBEF5DD85E490E22CDE1B
S113075088E99AE395CE089580ED92E0E0E0FAE02E
S113076080A791A721E080E090E1ABE1B0E00BB677
S1130770ABBFFC0120830BBEDDDD80E590E214DE1F
S113078020EC80E090E1ABE1B0E00BB6ABBFFC0144
S113079020830BBECFDD83E590E206DE88E99AE391
S11307A06FCE089587EA92E0E0E0FAE080A791A78F
S11307B021E080E090E1ABE1B0E00BB6ABBFFC011F
S11307C020830BBEB7DD8EE590E2EEDD20EC80E009
S11307D090E1ABE1B0E00BB6ABBFFC0120830BBEF4
S11307E0A9DD86E690E2E0DD88E99AE349CE089542
S11307F081E892E0E0E0FAE080A791A721E080E0C0
S113080090E1ABE1B0E00BB6ABBFFC0120830BBEC3
S113081091DD81E790E2C8DD20EC80E090E1ABE17E
S1130820B0E00BB6ABBFFC0120830BBE83DD84E7D5
S113083090E2BADD88E99AE323CE08958DE592E04B
S1130840E0E0FAE080A791A721E080E090E1ABE14D
S1130850B0E00BB6ABBFFC0120830BBE6BDD8FE7B2
S113086090E2A2DD20EC80E090E1ABE1B0E00BB6D9
S1130870ABBFFC0120830BBE5DDD87E890E294DD15
S113088088E99AE3FDCD08958CE392E0E0E0FAE094
S113089080A791A721E080E090E1ABE1B0E00BB646
S11308A0ABBFFC0120830BBE45DD82E990E27CDD19
S11308B020EC80E090E1ABE1B0E00BB6ABBFFC0113
S11308C020830BBE37DD85E990E26EDD88E99AE38B
S11308D0D7CD08958BE192E0E0E0FAE080A791A7FC
S11308E021E080E090E1ABE1B0E00BB6ABBFFC01EE
S11308F020830BBE1FDD80EA90E256DD20EC80E011
S113090090E1ABE1B0E00BB6ABBFFC0120830BBEC2
S113091011DD88EA90E248DD88E99AE3B1CD0895D3
S11309208DEF91E0E0E0FAE080A791A721E080E07C
S113093090E1ABE1B0E00BB6ABBFFC0120830BBE92
S1130940F9DC83EB90E230DD20EC80E090E1ABE178
S1130950B0E00BB6ABBFFC0120830BBEEBDC86EB37
S113096090E222DD88E99AE38BCD089580EE91E050
S1130970E0E0FAE080A791A721E080E090E1ABE11C
S1130980B0E00BB6ABBFFC0120830BBED3DC81EC23
S113099090E20ADD20EC80E090E1ABE1B0E00BB640
S11309A0ABBFFC0120830BBEC5DC84EC90E2FCDC15
S11309B088E99AE365CD089585EC91E0E0E0FAE0FA
S11309C080A791A721E080E090E1ABE1B0E00BB615
S11309D0ABBFFC0120830BBEADDC8FEC90E2E4DC0A
S11309E020EC80E090E1ABE1B0E00BB6ABBFFC01E2
S11309F020830BBE9FDC87ED90E2D6DC88E99AE386
S1130A003FCD08959B01482F50E0FA01F097E1345F
S1130A10F10508F08AC0ED5EFE4FE3C081EC93E07F
S1130A20E0E0FAE080A791A7C9012ACD08958BE8F8
S1130A3093E0E0E0FAE080A791A7C90121CD0895F1
S1130A4088E593E0E0E0FAE080A791A7C90118CD1A
S1130A50089588E293E0E0E0FAE080A791A7C90155
S1130A600FCD08958AEF92E0E0E0FAE080A791A725
S1130A70C90106CD089580ED92E0E0E0FAE080A798
S1130A8091A7C901FDCC089587EA92E0E0E0FAE07D
S1130A9080A791A7C901F4CC089581E892E0E0E031
S1130AA0FAE080A791A7C901EBCC08958DE592E007
S1130AB0E0E0FAE080A791A7C901E2CC08958CE3B5
S1130AC092E0E0E0FAE080A791A7C901D9CC0895AB
S1130AD08BE192E0E0E0FAE080A791A7C901D0CCD5
S1130AE008958DEF91E0E0E0FAE080A791A7C901B5
S1130AF0C7CC089580EE91E0E0E0FAE080A791A7EA
S1130B00C901BECC089585EC91E0E0E0FAE080A74D
S1130B1091A7C901B5CC089581E090E0E0E0FAE046
S1130B2080A791A780E197E2ABCC08950F931F9320
S1130B30CF93DF93EC018B018881882331F02196D8
S1130B40B80160DF89918111FBCFDF91CF911F91B3
S1130B500F91089587DCC5DB78DC03DCDBDB0F2E2B
S1130B60C12CF0E1DF2EFBE1EF2EF12CF02DD1E0D2
S1130B70C0ECDCDC8332D9F08A3209F030C00BB629
S1130B80EBBEF601D0830BBED5DB82EE90E20CDC2B
S1130B900BB6EBBEF601C0830BBECCDB8FEE90E24E
S1130BA003DC60E27EE48FEF90E2C0DFE2CF0BB6BD
S1130BB0EBBEF601D0830BBEBDDB81E191E2F4DB39
S1130BC00BB6EBBEF601C0830BBEB4DB8EE191E243
S1130BD0EBDB68EA71E686E291E2A8DFCACF00DDCA
S1130BE0C8CFEE0FFF1F0590F491E02D1994F894EF
S1050BF0FFCF31
S1130BF2433600313034362E353020487A004323D0
S1130C02362F44623600313130382E373320487A59
S1130C1200443600313137342E363620487A0044C7
S1130C2223362F45623600313234342E3531204892
S1130C327A00453600313331382E353120487A0076
S1130C42463600313339362E393820487A00462365
S1130C52362F47623600313437392E393820487AF4
S1130C6200473600313536372E393820487A004766
S1130C7223362F41623600313636312E3232204845
S1130C827A00413600313736302E303020487A002F
S1130C924123362F42623600313836342E3636201E
S1130CA2487A00423600313937352E353320487AB6
S1130CB200433700323039332E303020487A004333
S1130CC223372F44623700323231372E34362048EC
S1130CD27A00536F6E67206F662054696D65004F0A
S1130CE2636172696E61206F662054696D650030BC
S1130CF233363033363031423836383033313533A7
S1130D02004C75676961277320736F6E6700506FBB
S1130D126B656D6F6E003336353133307033363573
S10B0D22313336703033310027
S9030000FC
