:020000020000FC
:02000000FFC13E
:1004000060E050E04093A0064091A8064870483054
:1004100011F40C944D020EEF0093810600938406B4
:100420000894079553955A3409F427C0000000003A
:1004300000000000000000000000000000000000BC
:1004400000000000000000000000000000000000AC
:10045000000000000000000000000000000000009C
:10046000000000000000000000000000000000008C
:10047000000063956F3FD1F6D5CF60E050E00F3FAD
:1004800011F40FE7089400938106009384064091CD
:10049000A8064870483009F0C4CF01E800938106EF
:1004A0000093840600E811E030E00695110F202F3C
:1004B000012B5395523909F427C0000000000000B9
:1004C000000000000000000000000000000000002C
:1004D000000000000000000000000000000000001C
:1004E000000000000000000000000000000000000C
:1004F00000000000000000000000000000000000FC
:1005000063956F3FD1F6D5CF0093810600938406A3
:10051000013811F4303009F63395022F60E050E0D5
:0E0520004091A8064870403001F60C940B0282
:00000001FF
