S01100004C6162365F7175697A2E73726563A6
S1130000FDC0000017C1000015C1000013C10000AD
S113001011C100000FC100000DC100000BC10000A0
S113002009C1000007C1000005C1000003C10000B0
S113003001C10000FFC00000FDC00000FBC00000C3
S1130040F9C00000F7C00000F5C00000F3C00000D4
S1130050F1C00000EFC00000EDC00000EBC00000E4
S1130060E9C00000E7C00000E5C00000E3C00000F4
S1130070E1C00000DFC00000DDC00000DBC0000004
S1130080D9C00000D7C00000D5C00000D3C0000014
S1130090D1C00000CFC00000CDC00000CBC0000024
S11300A0C9C00000C7C00000C5C00000C3C0000034
S11300B0C1C00000BFC00000BDC00000BBC0000044
S11300C0B9C00000B7C00000B5C00000B3C0000054
S11300D0B1C00000AFC00000ADC00000ABC0000064
S11300E0A9C00000A7C00000A5C00000A3C0000074
S11300F0A1C000009FC000009DC000009BC0000084
S113010099C0000097C0000095C0000093C0000093
S113011091C000008FC000008DC000008BC00000A3
S113012089C0000087C0000085C0000083C00000B3
S113013081C000007FC000007DC000007BC00000C3
S113014079C0000077C0000075C0000073C00000D3
S113015071C000006FC000006DC000006BC00000E3
S113016069C0000067C0000065C0000063C00000F3
S113017061C000005FC000005DC000005BC0000003
S113018059C0000057C0000055C0000053C0000013
S113019051C000004FC000004DC000004BC0000023
S11301A049C0000047C0000045C0000043C0000033
S11301B041C000003FC000003DC000003BC0000043
S11301C039C0000037C0000035C0000033C0000053
S11301D031C000002FC000002DC000002BC0000063
S11301E029C0000027C0000025C0000023C0000073
S11301F021C000001FC000001DC0000011241FBE4C
S1130200CFEFCDBFDFE3DEBF00E00CBF18BE19BEE9
S11302101ABE1BBE10E2A0E0B0E2E0E6F5E000E0AA
S11302200BBF02C007900D92AE31B107D9F71BBEC8
S113023025D194C1E5CE87E38093E00683E38093E0
S1130240E4068FEF80932007E0E4F4E081E080830C
S1130250138A80E4828B81E1808B80E09BE1868B32
S1130260978B81E2848B089581E0809340029CE027
S11302709093410290E39093420297E0909344025A
S113028091E8909360028093200680E2809361025B
S1130290089588E18093B4068093B5068093B606EA
S11302A08093B7068FE08093A10680EF8093A20627
S11302B00895CF93DF931F92CDB7DEB7198280E004
S11302C090E1ABE1B0E00BB6ABBFFC0120810BBE0B
S11302D0298329812223BCF30F90DF91CF910895C4
S11302E0E8DF28E380E090E1ABE1B0E00BB6ABBF20
S11302F0FC0120830BBEDDDF2FE080E090E1ABE169
S1130300B0E00BB6ABBFFC0120830BBED2DF21E013
S113031080E090E1ABE1B0E00BB6ABBFFC01208321
S11303200BBEC7CF08957F928F929F92AF92BF92D8
S1130330CF92DF92EF92FF920F931F93CF93DF93AD
S1130340EC018881811119C016C0B3DF0031110599
S113035031F40BB6ABBEF40170820BBEAADFA9DF89
S113036089910BB6EBBEF60180830BBE0F5F1F4F66
S113037088818111EACF9DDF19C09BDF00E010E086
S11303800F2ECC24C394F0E1DF2EFBE1EF2EF12CF1
S1130390F02D0F2E812CF0E19F2EFBE1AF2EB12C1E
S11303A0F02D0F2EF0EC7F2EF02DD9CFDF91CF91D1
S11303B01F910F91FF90EF90DF90CF90BF90AF907F
S11303C09F908F907F9008958EE08093A406000004
S11303D08091A8068E3E91F18E3D91F18E3B91F174
S11303E08E3791F18DE08093A40600008091A806D9
S11303F08D3E61F18D3D61F18D3B61F18D3761F190
S11304008BE08093A40600008091A8068B3E31F116
S11304108B3D31F18B3B31F18B3731F187E08093A8
S1130420A40600008091A806873E01F1873D01F1F2
S1130430873B01F1873701F580E4089581E308954E
S113044084E3089587E3089583E2089582E3089599
S113045085E3089580E4089580E3089583E308958F
S113046087E3089580E4089583E2089580E408957D
S113047080E4089580E4089586E20895DCDE30DFA8
S1130480F3DE07DFD3E30F2EC12CF0E1DF2EFBE117
S1130490EF2EF12CF02D6894882484F80F2EFCE1C3
S11304A09F2EF02DAA24A3946894BB24B1F816E0DF
S11304B000EC01C0DC2F88DFC82F8DEC8C0F82305C
S11304C010F0CD17C1F3C33309F42DC028F4C133A0
S11304D051F0C233C1F0EFCFC43309F42EC0C53399
S11304E009F435C0E8CF0BB6EBBEF601B0820BBE03
S11304F0E0DE80E090E217DF0BB6EBBEF60110837E
S11305000BBED7DED7CF0BB6EBBEF60100830BBE16
S1130510D0DE80E190E207DF0BB6EBBEF60110837C
S11305200BBEC7DEC7CF0BB6EBBEF60180820BBE97
S1130530C0DE4ADF8632E9F7BDCF0BB6EBBEF6016B
S113054090820BBEB6DE40DF8632E9F7B3CF0BB63E
S1130550EBBEF601A0820BBEACDEACCFF894FFCFAD
S11305604B68616C6564206973206772656174000F
S1110570616E6420736F20616D2049210000CC
S9030000FC
