:1000000053C100006DC100006BC1000069C1000058
:1000100067C1000065C1000063C1000061C100004C
:100020005FC100005DC100005BC1000059C100005C
:1000300057C1000055C1000053C1000051C100006C
:100040004FC100004DC100004BC1000049C100007C
:1000500047C1000045C1000043C1000041C100008C
:100060003FC100003DC100003BC1000039C100009C
:1000700037C1000035C1000033C1000031C10000AC
:100080002FC100002DC100002BC1000029C10000BC
:1000900027C1000025C1000023C1000021C10000CC
:1000A0001FC100001DC100001BC1000019C10000DC
:1000B00017C1000015C1000013C1000011C10000EC
:1000C0000FC100000DC100000BC1000009C10000FC
:1000D00007C10000EEC1000003C1000001C1000023
:1000E000FFC00000FDC00000FBC00000F9C0000020
:1000F000F7C00000F5C00000F3C00000F1C0000030
:10010000EFC00000EDC00000EBC00000E9C000003F
:10011000E7C00000E5C00000E3C00000E1C000004F
:10012000DFC00000DDC00000DBC00000D9C000005F
:10013000D7C00000D5C00000D3C00000D1C000006F
:10014000CFC00000CDC00000CBC00000C9C000007F
:10015000C7C00000C5C00000C3C00000C1C000008F
:10016000BFC00000BDC00000BBC00000B9C000009F
:10017000B7C00000B5C00000B3C00000B1C00000AF
:10018000AFC00000ADC00000ABC00000A9C00000BF
:10019000A7C00000A5C00000A3C00000A1C00000CF
:1001A0009FC000009DC000009BC0000099C00000DF
:1001B00097C0000095C0000093C0000091C00000EF
:1001C0008FC000008DC000008BC0000089C00000FF
:1001D00087C0000085C0000083C0000081C000000F
:1001E0007FC000007DC000007BC0000079C000001F
:1001F00077C0000075C0000073C000002404CE0268
:10020000F4021A03400366038C03B203D803FE030F
:10021000E104E104E104E104E104E104E1044A044D
:1002200070049604BC043F05EE04F70400050905BC
:1002300012051B0524052D05360575057505750583
:100240007505750575057505480551055A0563055C
:1002500075057505750575057505750575057505CE
:1002600075057505750575057505750575057505BE
:1002700075057505750575057505750575057505AE
:10028000750575057505750575057505750575059E
:10029000750575057505750575057505750575058E
:1002A0007505750575056C0511241FBECFEFCDBF13
:1002B000DFE3DEBF00E00CBF18BE19BE1ABE1BBED6
:1002C00011E2A0E0B0E2E2EBFBE000E00BBF02C015
:1002D00007900D92A833B107D9F71BBE1BD467C492
:1002E0008FCE87E38093E00683E38093E4068FEF6D
:1002F00080932007E0E4F4E081E08083138A80E4C7
:10030000828B81E1808B80E09BE1868B978B81E201
:10031000848B089588E18093B4068093B50680931A
:10032000B6068093B7068FE08093A10680EF809396
:10033000A2060895CF93DF931F92CDB7DEB719823F
:1003400080E090E1ABE1B0E00BB6ABBFFC012081F7
:100350000BBE298329812223BCF30F90DF91CF911B
:100360000895E8DF28E380E090E1ABE1B0E00BB670
:10037000ABBFFC0120830BBEDDDF2FE080E090E10E
:10038000ABE1B0E00BB6ABBFFC0120830BBED2DF0C
:1003900021E080E090E1ABE1B0E00BB6ABBFFC0147
:1003A00020830BBEC7CF08957F928F929F92AF920A
:1003B000BF92CF92DF92EF92FF920F931F93CF9352
:1003C000DF93EC018881811119C016C0B3DF0031C1
:1003D000110531F40BB6ABBEF40170820BBEAADF7F
:1003E000A9DF89910BB6EBBEF60180830BBE0F5FD0
:1003F0001F4F88818111EACF9DDF19C09BDF00E08C
:1004000010E00F2ECC24C394F0E1DF2EFBE1EF2EA1
:10041000F12CF02D0F2E812CF0E19F2EFBE1AF2E61
:10042000B12CF02D0F2EF0EC7F2EF02DD9CFDF91D7
:10043000CF911F910F91FF90EF90DF90CF90BF90E1
:10044000AF909F908F907F900895E0E4FAE085E070
:10045000808380E1818382E0868317828093A2007B
:100460007894089581E0E0E8F6E081831092200A14
:100470001092210A1092000A81E18093010A0895E6
:10048000E0E4FAE010A211A286A397A326A137A167
:1004900080A191A18217930758F4A0E0BAE041E04F
:1004A0004C9326A137A180A191A182179307C0F395
:1004B00008951F920F920FB60F92112408B60F9253
:1004C00018BE1092000A0F9008BE0F900FBE0F903A
:1004D0001F9018958EE08093A40600008091A806D6
:1004E0008E3E91F18E3D91F18E3B91F18E3791F1DF
:1004F0008DE08093A40600008091A8068D3E61F1F6
:100500008D3D61F18D3B61F18D3761F18BE0809321
:10051000A40600008091A8068B3E31F18B3D31F19D
:100520008B3B31F18B3731F187E08093A4060000DB
:100530008091A806873E01F1873D01F1873B01F1DB
:10054000873701F584E4089581E3089584E30895ED
:1005500087E308958AE2089582E3089585E3089584
:1005600088E3089580E3089583E3089586E308957A
:1005700089E3089583E2089581E4089582E408956B
:1005800083E4089586E2089590E0FC01F097E53158
:10059000F10508F016C2E250FF4F03C381EC93E06F
:1005A000E0E0FAE080A791A721E080E090E1ABE1F4
:1005B000B0E00BB6ABBFFC0120830BBEBBDE80E01E
:1005C00090E2F2DE20EC80E090E1ABE1B0E00BB62F
:1005D000ABBFFC0120830BBEADDE83E090E2E4DE26
:1005E00088E99AE34DCF08958BE893E0E0E0FAE0E4
:1005F00080A791A721E080E090E1ABE1B0E00BB6ED
:10060000ABBFFC0120830BBE95DE8EE090E2CCDE1A
:1006100020EC80E090E1ABE1B0E00BB6ABBFFC01B9
:1006200020830BBE87DE86E190E2BEDE88E99AE396
:1006300027CF089588E593E0E0E0FAE080A791A74E
:1006400021E080E090E1ABE1B0E00BB6ABBFFC0194
:1006500020830BBE6FDE81E290E2A6DE20EC80E01C
:1006600090E1ABE1B0E00BB6ABBFFC0120830BBE69
:1006700061DE84E290E298DE88E99AE301CF089592
:1006800088E293E0E0E0FAE080A791A721E080E033
:1006900090E1ABE1B0E00BB6ABBFFC0120830BBE39
:1006A00049DE8FE290E280DE20EC80E090E1ABE179
:1006B000B0E00BB6ABBFFC0120830BBE3BDE87E393
:1006C00090E272DE88E99AE3DBCE08958AEF92E049
:1006D000E0E0FAE080A791A721E080E090E1ABE1C3
:1006E000B0E00BB6ABBFFC0120830BBE23DE82E47F
:1006F00090E25ADE20EC80E090E1ABE1B0E00BB696
:10070000ABBFFC0120830BBE15DE85E490E24CDE1E
:1007100088E99AE3B5CE089580ED92E0E0E0FAE052
:1007200080A791A721E080E090E1ABE1B0E00BB6BB
:10073000ABBFFC0120830BBEFDDD80E590E234DE23
:1007400020EC80E090E1ABE1B0E00BB6ABBFFC0188
:1007500020830BBEEFDD83E590E226DE88E99AE395
:100760008FCE089587EA92E0E0E0FAE080A791A7B3
:1007700021E080E090E1ABE1B0E00BB6ABBFFC0163
:1007800020830BBED7DD8EE590E20EDE20EC80E00C
:1007900090E1ABE1B0E00BB6ABBFFC0120830BBE38
:1007A000C9DD86E690E200DE88E99AE369CE089525
:1007B00081E892E0E0E0FAE080A791A721E080E004
:1007C00090E1ABE1B0E00BB6ABBFFC0120830BBE08
:1007D000B1DD81E790E2E8DD20EC80E090E1ABE183
:1007E000B0E00BB6ABBFFC0120830BBEA3DD84E7FA
:1007F00090E2DADD88E99AE343CE08958DE592E050
:10080000E0E0FAE080A791A721E080E090E1ABE191
:10081000B0E00BB6ABBFFC0120830BBE8BDD8FE7D6
:1008200090E2C2DD20EC80E090E1ABE1B0E00BB6FD
:10083000ABBFFC0120830BBE7DDD87E890E2B4DD19
:1008400088E99AE31DCE08958CE392E0E0E0FAE0B7
:1008500080A791A721E080E090E1ABE1B0E00BB68A
:10086000ABBFFC0120830BBE65DD82E990E29CDD1D
:1008700020EC80E090E1ABE1B0E00BB6ABBFFC0157
:1008800020830BBE57DD85E990E28EDD88E99AE38F
:10089000F7CD08958BE192E0E0E0FAE080A791A720
:1008A00021E080E090E1ABE1B0E00BB6ABBFFC0132
:1008B00020830BBE3FDD80EA90E276DD20EC80E015
:1008C00090E1ABE1B0E00BB6ABBFFC0120830BBE07
:1008D00031DD88EA90E268DD88E99AE3D1CD0895B8
:1008E0008DEF91E0E0E0FAE080A791A721E080E0C1
:1008F00090E1ABE1B0E00BB6ABBFFC0120830BBED7
:1009000019DD83EB90E250DD20EC80E090E1ABE17B
:10091000B0E00BB6ABBFFC0120830BBE0BDD86EB5A
:1009200090E242DD88E99AE3ABCD089580EE91E054
:10093000E0E0FAE080A791A721E080E090E1ABE160
:10094000B0E00BB6ABBFFC0120830BBEF3DC81EC47
:1009500090E22ADD20EC80E090E1ABE1B0E00BB664
:10096000ABBFFC0120830BBEE5DC84EC90E21CDD18
:1009700088E99AE385CD089585EC91E0E0E0FAE01E
:1009800080A791A721E080E090E1ABE1B0E00BB659
:10099000ABBFFC0120830BBECDDC8FEC90E204DD0D
:1009A00020EC80E090E1ABE1B0E00BB6ABBFFC0126
:1009B00020830BBEBFDC87ED90E2F6DC88E99AE38A
:1009C0005FCD08959B01482F50E0FA01F097E13484
:1009D000F10508F08AC0ED5EFE4FE3C081EC93E0C4
:1009E000E0E0FAE080A791A7C9014ACD08958BE81D
:1009F00093E0E0E0FAE080A791A7C90141CD089516
:100A000088E593E0E0E0FAE080A791A7C90138CD3E
:100A1000089588E293E0E0E0FAE080A791A7C90199
:100A20002FCD08958AEF92E0E0E0FAE080A791A749
:100A3000C90126CD089580ED92E0E0E0FAE080A7BC
:100A400091A7C9011DCD089587EA92E0E0E0FAE0A0
:100A500080A791A7C90114CD089581E892E0E0E054
:100A6000FAE080A791A7C9010BCD08958DE592E02A
:100A7000E0E0FAE080A791A7C90102CD08958CE3D8
:100A800092E0E0E0FAE080A791A7C901F9CC0895CF
:100A90008BE192E0E0E0FAE080A791A7C901F0CCF9
:100AA00008958DEF91E0E0E0FAE080A791A7C901F9
:100AB000E7CC089580EE91E0E0E0FAE080A791A70E
:100AC000C901DECC089585EC91E0E0E0FAE080A772
:100AD00091A7C901D5CC089581E090E0E0E0FAE06B
:100AE00080A791A780E197E2CBCC08950F931F9345
:100AF000CF93DF93EC018B018881882331F021961D
:100B0000B80160DF89918111FBCFDF91CF911F91F7
:100B10000F910895A7DCE5DB98DC23DCFBDB0F2ECF
:100B2000C12CF0E1DF2EFBE1EF2EF12CF02DD1E016
:100B3000C0ECD0DC8332D9F08A3209F030C00BB679
:100B4000EBBEF601D0830BBEF5DB82EE90E22CDC2F
:100B50000BB6EBBEF601C0830BBEECDB8FEE90E272
:100B600023DC60E27EE48FEF90E2C0DFE2CF0BB6E1
:100B7000EBBEF601D0830BBEDDDB81E191E214DC3C
:100B80000BB6EBBEF601C0830BBED4DB8EE191E267
:100B90000BDC68EA71E686E291E2A8DFCACFF4DCFA
:100BA000C8CFEE0FFF1F0590F491E02D1994F89433
:020BB000FFCF75
:100BB200433600313034362E353020487A00432314
:100BC200362F44623600313130382E373320487A9E
:100BD20000443600313137342E363620487A00440C
:100BE20023362F45623600313234342E35312048D7
:100BF2007A00453600313331382E353120487A00BB
:100C0200463600313339362E393820487A004623A9
:100C1200362F47623600313437392E393820487A38
:100C220000473600313536372E393820487A0047AA
:100C320023362F41623600313636312E3232204889
:100C42007A00413600313736302E303020487A0073
:100C52004123362F42623600313836342E36362062
:100C6200487A00423600313937352E353320487AFA
:100C720000433700323039332E303020487A004377
:100C820023372F44623700323231372E3436204830
:100C92007A00536F6E67206F662054696D65004F4E
:100CA200636172696E61206F662054696D65003000
:100CB20033363033363031423836383033313533EB
:100CC200004C75676961277320736F6E6700506F00
:100CD2006B656D6F6E0033363531333070333635B8
:080CE20031333670303331006C
:00000001FF
