:020000020000FC
:101E00000F931F9300E010E00395043B19F41F911A
:101E10000F91089500000000000000000000000085
:101E200000000000000000000000000000000000B2
:101E300000000000000000000000000000000000A2
:101E40000000000000000000000000000000000092
:101E50000000000000000000000013951F3FD1F6B5
:021E6000D3CFDE
:02000000FFC13E
:0200AC00DAC1B7
:100400000FEF0DBF0FE30EBF07E10093E00603E11E
:100410000093E4060FEF009300070093200701E02C
:1004200000934004F4E0E2E500E4019300E000837F
:1004300001E100935004B0E4A0E010E002D000001D
:10044000FFCF01E000938A060093820601E000934B
:10045000890601E00093900601E00093A2007894E1
:1004600008950E94000F0F930FB70F93000013958C
:100470001C9301E000938C060F910FBF0F9118950C
:00000001FF
