S01200004C6162385F425F5253522E73726563D4
S1130000FDC000001FC100001DC100001BC1000095
S113001019C1000017C1000015C1000013C1000080
S113002011C100000FC100000DC100000BC1000090
S113003009C1000007C1000005C1000003C10000A0
S113004001C10000FFC00000FDC00000FBC00000B3
S1130050F9C00000F7C00000F5C00000F3C00000C4
S1130060F1C00000EFC00000EDC00000EBC00000D4
S1130070E9C00000E7C00000E5C00000E3C00000E4
S1130080E1C00000DFC00000DDC00000DBC00000F4
S1130090D9C00000D7C00000D5C00000D3C0000004
S11300A0D1C00000CFC00000CDC00000CBC0000014
S11300B0C9C00000C7C00000C5C00000C3C0000024
S11300C0C1C00000BFC00000BDC00000BBC0000034
S11300D0B9C00000B7C00000B5C00000DFC1000017
S11300E0B1C00000AFC00000ADC00000ABC0000054
S11300F0A9C00000A7C00000A5C00000A3C0000064
S1130100A1C000009FC000009DC000009BC0000073
S113011099C0000097C0000095C0000093C0000083
S113012091C000008FC000008DC000008BC0000093
S113013089C0000087C0000085C0000083C00000A3
S113014081C000007FC000007DC000007BC00000B3
S113015079C0000077C0000075C0000073C00000C3
S113016071C000006FC000006DC000006BC00000D3
S113017069C0000067C0000065C0000063C00000E3
S113018061C000005FC000005DC000005BC00000F3
S113019059C0000057C0000055C0000053C0000003
S11301A051C000004FC000004DC000004BC0000013
S11301B049C0000047C0000045C0000043C0000023
S11301C041C000003FC000003DC000003BC0000033
S11301D039C0000037C0000035C0000033C0000043
S11301E031C000002FC000002DC000002BC0000053
S11301F029C0000027C0000025C0000011241FBE34
S1130200CFEFCDBFDFE3DEBF00E00CBF18BE19BEE9
S11302101ABE1BBE10E2A0E0B0E2E0E9F6E000E0A6
S11302200BBF02C007900D92AA33B107D9F71BBECA
S113023028E2AAE3B0E201C01D92A43DB207E1F7AF
S1130240D6D124C2DDCE87E38093E00683E3809396
S1130250E4068FEF80932007E0E4F4E081E08083FC
S1130260138A80E4828B81E1808B80E09BE1868B22
S1130270978B81E2848B0895CF93DF931F92CDB740
S1130280DEB7198280E090E1ABE1B0E00BB6ABBF22
S1130290FC0120810BBE298329812223BCF30F900A
S11302A0DF91CF910895E8DF28E380E090E1ABE1AE
S11302B0B0E00BB6ABBFFC0120830BBEDDDF2FE04B
S11302C080E090E1ABE1B0E00BB6ABBFFC01208372
S11302D00BBED2DF21E080E090E1ABE1B0E00BB6F1
S11302E0ABBFFC0120830BBEC7CF08957F928F92D2
S11302F09F92AF92BF92CF92DF92EF92FF920F93B1
S11303001F93CF93DF93EC018881811119C016C02C
S1130310B3DF0031110531F40BB6ABBEF4017082CA
S11303200BBEAADFA9DF89910BB6EBBEF601808371
S11303300BBE0F5F1F4F88818111EACF9DDF19C06B
S11303409BDF00E010E00F2ECC24C394F0E1DF2EFD
S1130350FBE1EF2EF12CF02D0F2E812CF0E19F2EDE
S1130360FBE1AF2EB12CF02D0F2EF0EC7F2EF02DF3
S1130370D9CFDF91CF911F910F91FF90EF90DF9034
S1130380CF90BF90AF909F908F907F90089588E119
S11303908093B4068093B5068093B6068093B7061F
S11303A08FE08093A10680EF8093A20608958EE0EB
S11303B08093A40600008091A8068E3E91F18E3DA4
S11303C091F18E3B91F18E3791F18DE08093A406EB
S11303D000008091A8068D3E61F18D3D61F18D3B59
S11303E061F18D3761F18BE08093A4060000809168
S11303F0A8068B3E31F18B3D31F18B3B31F18B37CC
S113040031F187E08093A40600008091A806873E1E
S113041001F1873D01F1873B01F1873701F584E460
S1130420089581E3089584E3089587E308958AE2B3
S1130430089582E3089585E3089588E3089580E3A9
S1130440089583E3089586E3089589E3089583E294
S1130450089581E4089582E4089583E4089586E28A
S11304600895F89490E19093820681E08093400A85
S11304709093410A98E29093430A8093470A10921A
S113048094068093A20084E7809380018FEF9FE716
S11304908093660A9093670A789408951F920F9246
S11304A00FB60F92112408B60F9218BE0BB60F9216
S11304B01BBE8F939F93EF93FF9300001092600AEB
S11304C01092610AE0913A20F0913B208091680AF1
S11304D09091690AEE0FFF1FE45CFF4D80839183C6
S11304E080913A2090913B20019680933A209093FA
S11304F03B200000FF91EF919F918F910F900BBED5
S11305000F9008BE0F900FBE0F901F901895ECE34C
S1130510F0E228ECAC01249FC001259F900D11242A
S1130520DC01AC5FBE4D24E031E2819191918D9369
S11305309D93E217F307C9F70895CF93DF9300D093
S11305401F92CDB7DEB719821A821B821C82898161
S11305509A81AB81BC81813A9648A140B105A0F44F
S113056089819A81AB81BC810196A11DB11D8983CA
S11305709A83AB83BC8389819A81AB81BC81813AA4
S11305809648A140B10560F32496CDBFDEBFDF914C
S1130590CF910895CF93DF9300D01F92CDB7DEB7EC
S11305A019821A821B821C8289819A81AB81BC8147
S11305B081319742A105B105A0F489819A81AB816B
S11305C0BC810196A11DB11D89839A83AB83BC8331
S11305D089819A81AB81BC8181319742A105B105A2
S11305E060F32496CDBFDEBFDF91CF9108952BDE5B
S11305F05ADECDDE36DF0F2EC12CF0E1DF2EFBE11B
S1130600EF2EF12CF02D11E000ECC1E4DAE0689457
S1130610BB24B4F80BB6EBBEF60110830BBE2CDE84
S113062080E090E263DE0BB6EBBEF60100830BBE06
S113063023DE80E190E25ADEBADE813319F08233A0
S113064049F322C00BB6EBBEF60110830BBE14DED9
S113065088E190E24BDE0BB6EBBEF60100830BBEE5
S11306600BDE80E290E242DE68DF0BB6EBBEF60101
S113067010830BBE01DEB8828DE290E237DE5DDFCF
S113068086EF9FEF44DFC6CF85DFC4CFF894FFCF5A
S11306903129205265636F72642061206B65790093
S11306A0322920506C6179005265636F72643A009C
S11306B05072657373206B65797061640050726564
S10D06C073732072656D6F7465009A
S9030000FC
