:020000020000FC
:02000000FFC13E
:100400000FEF0DBF0FE30EBF07E10093E00603E11E
:100410000093E4060FEF009300070093200701E02C
:1004200000934004F4E0E2E500E4019300E000837F
:1004300001E100935004B0E4A0E024D030D002D019
:100440000AD0FDCF1F930091A10907FFFCCF0091B7
:10045000A0091F9108951F932F931091A10915FFD3
:10046000FCCF20E201344CF00B3514F4020F05C030
:1004700001361CF00B370CF400520093A0092F91A9
:100480001F91089508E10093A40903E00093A509D2
:100490000BE10093A60900ED0093A709089508E079
:1004A000009361060093650604E0009362060AE08B
:0A04B0000093C1070093C6070895EA
:00000001FF
