:020000020000FC
:02000000FFC13E
:1004000007E10093E00602E00093E4060FEF00939B
:1004100000070FEF0093200701E000934004F4E091
:10042000E2E500E4019300E0008301E10093500461
:10043000B0E4A0E038E02C912C9306D005D02695AE
:100440003A953030B9F3F8CF50E060E05395583C1E
:1004500009F4089500000000000000000000000002
:10046000000000000000000000000000000000008C
:10047000000000000000000000000000000000007C
:10048000000000000000000000000000000000006C
:100490000000000000000000000063956F3FD1F6EF
:0204A000D5CFB6
:00000001FF
