:020000020000FC
:101E00000F931F9300E010E00395031719F41F913F
:101E10000F91089500000000000000000000000085
:101E200000000000000000000000000000000000B2
:101E300000000000000000000000000000000000A2
:101E40000000000000000000000000000000000092
:101E50000000000000000000000013951F3FD1F6B5
:021E6000D3CFDE
:02000000FFC13E
:02016000ACC130
:100400000FEF0DBF0FE30EBF07E10093E00603E11E
:100410000093E4060FEF009300070093200701E02C
:1004200000934004F4E0E2E500E4019300E000837F
:1004300001E100935004B0E4A0E01DD030D004E00E
:1004400020E03AE40C930E94000F2C930E94000FCE
:10045000F8CF1F930091A10907FFFCCF0091A009DD
:100460001F9108951F931091A10915FFFCCF0093D0
:10047000A0091F91089500E10093A30908E10093EA
:10048000A40903E00093A50907ED0093A60903E979
:100490000093A70901E00093A2007894089508E072
:1004A000009361060093650604E0009362060AE08B
:1004B0000093C1070093C60708950F930FB70F93DA
:0E04C0000000C7DFCFDF0F910FBF0F9118951F
:00000001FF
