:10000000FDC0000017C1000015C1000013C10000B1
:1000100011C100000FC100000DC100000BC10000A4
:1000200009C1000007C1000005C1000003C10000B4
:1000300001C10000FFC00000FDC00000FBC00000C7
:10004000F9C00000F7C00000F5C00000F3C00000D8
:10005000F1C00000EFC00000EDC00000EBC00000E8
:10006000E9C00000E7C00000E5C00000E3C00000F8
:10007000E1C00000DFC00000DDC00000DBC0000008
:10008000D9C00000D7C00000D5C00000D3C0000018
:10009000D1C00000CFC00000CDC00000CBC0000028
:1000A000C9C00000C7C00000C5C00000C3C0000038
:1000B000C1C00000BFC00000BDC00000BBC0000048
:1000C000B9C00000B7C00000B5C00000B3C0000058
:1000D000B1C00000AFC00000ADC0000073C100009F
:1000E000A9C00000A7C00000A5C00000A3C0000078
:1000F000A1C000009FC000009DC000009BC0000088
:1001000099C0000097C0000095C0000093C0000097
:1001100091C000008FC000008DC000008BC00000A7
:1001200089C0000087C0000085C0000083C00000B7
:1001300081C000007FC000007DC000007BC00000C7
:1001400079C0000077C0000075C0000073C00000D7
:1001500071C000006FC000006DC000006BC00000E7
:1001600069C0000067C0000065C0000063C00000F7
:1001700061C000005FC000005DC000005BC0000007
:1001800059C0000057C0000055C0000053C0000017
:1001900051C000004FC000004DC000004BC0000027
:1001A00049C0000047C0000045C0000043C0000037
:1001B00041C000003FC000003DC000003BC0000047
:1001C00039C0000037C0000035C0000033C0000057
:1001D00031C000002FC000002DC000002BC0000067
:1001E00029C0000027C0000025C0000023C0000077
:1001F00021C000001FC000001DC0000011241FBE50
:10020000CFEFCDBFDFE3DEBF00E00CBF18BE19BEED
:100210001ABE1BBE10E2A0E0B0E2EAEBF4E000E0A0
:100220000BBF02C007900D92AC30B107D9F71BBECF
:1002300004D141C1E5CE87E38093E00683E3809358
:10024000E4068FEF80932007E0E4F4E081E0808310
:10025000138A80E4828B81E1808B80E09BE1868B36
:10026000978B81E2848B0895CF93DF931F92CDB754
:10027000DEB7198280E090E1ABE1B0E00BB6ABBF36
:10028000FC0120810BBE298329812223BCF30F901E
:10029000DF91CF910895E8DF28E380E090E1ABE1C2
:1002A000B0E00BB6ABBFFC0120830BBEDDDF2FE05F
:1002B00080E090E1ABE1B0E00BB6ABBFFC01208386
:1002C0000BBED2DF21E080E090E1ABE1B0E00BB605
:1002D000ABBFFC0120830BBEC7CF08957F928F92E6
:1002E0009F92AF92BF92CF92DF92EF92FF920F93C5
:1002F0001F93CF93DF93EC018881811119C016C041
:10030000B3DF0031110531F40BB6ABBEF4017082DE
:100310000BBEAADFA9DF89910BB6EBBEF601808385
:100320000BBE0F5F1F4F88818111EACF9DDF19C07F
:100330009BDF00E010E00F2ECC24C394F0E1DF2E11
:10034000FBE1EF2EF12CF02D0F2E812CF0E19F2EF2
:10035000FBE1AF2EB12CF02D0F2EF0EC7F2EF02D07
:10036000D9CFDF91CF911F910F91FF90EF90DF9048
:10037000CF90BF90AF909F908F907F900895E0E4D2
:10038000FAE081E08083818392E096838783909373
:10039000A20078940895E0E4FAE010A211A286A3E6
:1003A00097A326A137A180A191A18217930748F4B2
:1003B00041E0408326A137A180A191A18217930734
:1003C000C0F308951F920F920FB60F92112408B632
:1003D0000F9218BE1092400A0F9008BE0F900FBEE9
:1003E0000F901F90189580E18093A30988E1809376
:1003F000A40983E08093A5098CE28093A60980ED8F
:100400008093A70981E08093A2007894089588E002
:10041000809361068093650684E0809362068AE09B
:100420008093C1078093C6070895E1EAF9E09081BF
:1004300095FFFDCF8093A0090895FDDE2CDF9FDF9F
:10044000D2DFE5DF00E41AE0CEE8DAE00F2EC12CBF
:10045000F0E1DF2EFBE1EF2EF12CF02D6894BB24B0
:10046000B1F8F801C0A7D1A70BB6EBBEF601B08278
:100470000BBEFADE80E090E231DF84E3D6DF87E373
:10048000D4DF84E3D2DF84E3D0DF80E2CEDF82E515
:10049000CCDF8FE6CADF83E6C8DF8BE6C6DF83E703
:1004A000C4DF81E2C2DF8DE0C0DF8AE0BEDF88EC1E
:0A04B00090E071DFD6CFF894FFCF83
:0C04BA003437343420526F636B73210020
:00000001FF
